:1000000000800020BD0100009578000059780000B4
:10001000597800005978000059780000597800009C
:100020005978000059780000597800009578000050
:100030009578000059780000957800004978000014
:10004000957800009578000095780000957800007C
:10005000957800009578000095780000957800006C
:10006000957800009578000095780000957800005C
:10007000957800009578000095780000957800004C
:10008000957800009578000095780000957800003C
:10009000957800009578000095780000957800002C
:1000A000BD4E00009578000095780000957800001E
:1000B000957800009578000095780000957800000C
:1000C00095780000957800009578000095780000FC
:1000D00095780000957800009578000095780000EC
:1000E00095780000957800009578000095780000DC
:1000F00095780000359C00009578000099A30000D9
:100100009578000015A9000095780000957800000A
:1001100095780000957800009578000095780000AB
:10012000957800009578000095780000957800009B
:10013000957800009578000095780000957800008B
:10014000957800009578000095780000957800007B
:10015000957800009578000095780000957800006B
:1001600095780000E98300009578000095780000FC
:10017000957800009578000095780000957800004B
:10018000957800009578000095780000957800003B
:10019000957800009578000095780000957800002B
:1001A000957800009578000095780000957800001B
:1001B000957800009578000095780000574B4CF238
:1001C000205210B51A804DF628121A8000BF00BFC9
:1001D00007F064FB524B4FF010621A60514A9A606C
:1001E000514ADA60A3F53043203B1A6812F480725A
:1001F00004D14E490A604FF4A8521A604C4B1A7849
:10020000110703D51A7842F008021A70494B4A4C7C
:100210004A482A221A704A4A00239918A14203D256
:10022000195899500433F8E7464B474900228B424E
:1002300002D243F8042BFAE74448454900235A58B0
:100240001A500433B3F5DE7FF9D1424B424A802184
:1002500003F8011B9342FBD1404B3C4A1A60404BD0
:100260008A221A70A3F5805324225A70A0221A7091
:100270009A799207FCD59A79D406FCD4394A9379B5
:1002800003F00C03082B374BF9D103221A714022DB
:100290005A719A799006FCD5324A9179314B4906C8
:1002A000FBD5314A314911600221516020221A7078
:1002B0009A7902F00C020C2AFAD12D4B2D4A1A60C1
:1002C0002D4B2E4A1A6000225A60072243F8042C54
:1002D0002B4AC3F80C2D62B607F046FF134B1B6880
:1002E000DA0705D5274807F0D1FC274B274A1A60C3
:1002F000274B1B785B0609D5234C244A236893427D
:1003000004D1204807F0C2FC002323600DF0DCF983
:1003100007F0CAFA09F068F8FEE700BF0E200540B2
:1003200030800440823F04000100002B14D00340C1
:1003300002D0074000E00740D491FF1F28EF0000E3
:100340006087FF1FD491FF1FBCA0FF1F0082FF1F0B
:100350000000000000E400E05FE400E008ED00E0E1
:100360000050064000400640448004400000030165
:1003700004800440C010050014E000E0FF76010096
:10038000000020201F9A48581CE00340A5C3945A3F
:1003900000F00740FFFFFFFFFFFFFFFFFFFFFFFF32
:1003A000FFFFFFFFFFFFFFFFFFFFFFFFFFFFFFFF5D
:1003B000FFFFFFFFFFFFFFFFFFFFFFFFFFFFFFFF4D
:1003C000FFFFFFFFFFFFFFFFFFFFFFFFFFFFFFFF3D
:1003D000FFFFFFFFFFFFFFFFFFFFFFFFFFFFFFFF2D
:1003E000FFFFFFFFFFFFFFFFFFFFFFFFFFFFFFFF1D
:1003F000FFFFFFFFFFFFFFFFFFFFFFFFFFFFFFFF0D
:10040000FFFFFFFFFFFFFFFFFFFFFFFFDEF9FFFF23
:1004100010B5054C237833B9044B13B10448AFF33E
:1004200000800123237010BDD491FF1F0000000045
:1004300028EF000008B5064B1BB106480649AFF38C
:1004400000800648036813B1054B03B1984708BD07
:100450000000000028EF0000D891FF1FD491FF1F7B
:100460000000000003680B6043684B6083688B608A
:10047000C368CB6003690B6143694B6183698B611E
:10048000C369CB61036A0B62704700BF03680B60EE
:1004900043684B6083688B60704700BF03680B60E4
:1004A000C3684B6083698B604368CB6003690B61F1
:1004B000C3694B6183688B614369CB61036A0B62DB
:1004C000704700BF38B504460D4600680CF0DAFEF0
:1004D0002060606829460CF0D5FE6060A06829465F
:1004E0000CF0D0FEA060E06829460CF0CBFEE06086
:1004F000206929460CF0C6FE2061606929460CF08F
:10050000C1FE6061A06929460CF0BCFEA061E069F3
:1005100029460CF0B7FEE061206A29460CF0B2FED5
:10052000206238BD38B504460D4600680CF0AAFEBE
:100530002060606829460CF0A5FE6060A06829462E
:100540000CF0A0FEA06038BD70B505460E461446FE
:1005500000680CF097FE2060686831460CF092FE4F
:100560006060A86831460CF08DFEA06070BD00BFD1
:1005700070B506460D461446006809680CF078FD13
:100580002060706869680CF073FD6060B068A968ED
:100590000CF06EFDA06070BD70B506460D461446A9
:1005A000006809680CF064FD2060706869680CF0F0
:1005B0005FFD6060B068A9680CF05AFDA060F0684B
:1005C000E9680CF055FDE060306929690CF050FDD8
:1005D0002061706969690CF04BFD6061B069A969BF
:1005E0000CF046FDA061F069E9690CF041FDE061A5
:1005F000306A296A0CF03CFD206270BDF8B50546F2
:100600000C461646006809680CF03CFE0746686810
:1006100061680CF037FE014638460CF02BFD0746AA
:10062000A868A1680CF02EFE014638460CF022FDA9
:100630003060E86821680CF025FE0746286961688B
:100640000CF020FE014638460CF014FD07466869A0
:10065000A1680CF017FE014638460CF00BFD7060E7
:10066000A86921680CF00EFE0746E86961680CF085
:1006700009FE014638460CF0FDFC0746286AA168D1
:100680000CF000FE014638460CF0F4FCB060F8BDFA
:10069000F8B505460C461646006809680CF0F2FDF0
:1006A00007466868E1680CF0EDFD014638460CF03D
:1006B000E1FC0746A868A1690CF0E4FD0146384654
:1006C0000CF0D8FC3060286861680CF0DBFD074650
:1006D000686821690CF0D6FD014638460CF0CAFC6A
:1006E0000746A868E1690CF0CDFD014638460CF0DC
:1006F000C1FC70602868A1680CF0C4FD07466868FA
:1007000061690CF0BFFD014638460CF0B3FC0746AA
:10071000A868216A0CF0B6FD014638460CF0AAFC28
:10072000B060E86821680CF0ADFD07462869E16813
:100730000CF0A8FD014638460CF09CFC07466869A1
:10074000A1690CF09FFD014638460CF093FCF06067
:10075000E86861680CF096FD0746286921690CF08D
:1007600091FD014638460CF085FC07466869E16951
:100770000CF088FD014638460CF07CFC3061E868DE
:10078000A1680CF07FFD0746286961690CF07AFDCD
:10079000014638460CF06EFC07466869216A0CF089
:1007A00071FD014638460CF065FC7061A86921684E
:1007B0000CF068FD0746E869E1680CF063FD01464E
:1007C00038460CF057FC0746286AA1690CF05AFD20
:1007D000014638460CF04EFCB061A86961680CF027
:1007E00051FD0746E86921690CF04CFD0146384689
:1007F0000CF040FC0746286AE1690CF043FD014615
:1008000038460CF037FCF061A869A1680CF03AFD9D
:100810000746E86961690CF035FD014638460CF081
:1008200029FC0746286A216A0CF02CFD014638464F
:100830000CF020FC3062F8BDF8B504460D461646B3
:10084000406889680CF01EFD07466868A1680CF0D6
:1008500019FD014638460CF00BFC3060A068296891
:100860000CF010FD0746A86821680CF00BFD01464E
:1008700038460CF0FDFB7060206869680CF002FDE2
:100880000746286861680CF0FDFC014638460CF00C
:10089000EFFBB060F8BD00BFF8B506684568846836
:1008A000304631460CF0EEFC0646284629460CF050
:1008B000E9FC014630460CF0DDFB054620462146AA
:1008C0000CF0E0FC014628460CF0D4FB0CF066F876
:1008D0000AF026FB0CF078FBF8BD00BFC3690B6083
:1008E00083684B60C3688B60704700BF43680B70C0
:1008F00043681B0A4B70C3888B70C379CB708368C5
:100900000B7183681B0A4B7143898B71C37ACB715E
:10091000082070470B7843604A7843EA022343601B
:100920008A7843EA02434360CA7843EA0263436039
:100930000B7983604A7943EA022383608A7943EA28
:1009400002438360CA7943EA0263836008207047E8
:1009500000487047F0E600000048704700E70000DC
:100960000048704724E700000048704740E7000057
:100970000048704764E700000048704778E70000CF
:10098000004870479CE90000004870479CE7000061
:1009900000487047C0E7000000487047D0E70000FB
:1009A00000487047F4E70000004870470CE800007A
:1009B0000048704730E80000004870474CE80000ED
:1009C0000048704770E800000048704788E8000061
:1009D00000487047ACE8000000487047CCE80000D1
:1009E00043680B701A0A4A701A0C8A701B0ECB707F
:1009F00083680B711A0A4A711A0C8A711B0ECB712B
:100A0000C3680B721A0A4A721A0C8A721B0ECB72D6
:100A100003690B731A0A4A731A0C8A731B0ECB7381
:100A200043690B741A0A4A741A0C8A741B0ECB742D
:100A300083690B751A0A4A751A0C8A751B0ECB75D9
:100A4000C3690B761A0A4A761A0C8A761B0ECB7685
:100A5000036A0B771A0A4A771A0C8A771B0ECB7730
:100A6000436A81F820301A0A81F821201A0C81F893
:100A700022201B0E81F82330836A81F824301A0A61
:100A800081F825201A0C81F826201B0E81F82730CA
:100A9000C36A81F828301A0A81F829201A0C81F8D3
:100AA0002A201B0E81F82B30036B81F82C301A0A98
:100AB00081F82D201A0C81F82E201B0E81F82F3082
:100AC000436B81F830301A0A81F831201A0C81F812
:100AD00032201B0E81F83330836B81F834301A0AD0
:100AE00081F835201A0C81F836201B0E81F837303A
:100AF00090F83C3081F83830392070474A788B784C
:100B00001B0443EA02230A781343CA7843EA0263C8
:100B100043604A798B791B0443EA02230A79134321
:100B2000CA7943EA026383604A7A8B7A1B0443EAF8
:100B300002230A7A1343CA7A43EA0263C3604A7BF8
:100B40008B7B1B0443EA02230A7B1343CA7B43EAE1
:100B5000026303614A7C8B7C1B0443EA02230A7C08
:100B60001343CA7C43EA026343614A7D8B7D1B04C5
:100B700043EA02230A7D1343CA7D43EA0263836189
:100B80004A7E8B7E1B0443EA02230A7E1343CA7EFD
:100B900043EA0263C3614A7F8B7F1B0443EA02235B
:100BA0000A7F1343CA7F43EA0263036291F821205C
:100BB00091F822301B0443EA022391F820201343CA
:100BC00091F8232043EA0263436291F8252091F8CB
:100BD00026301B0443EA022391F82420134391F8A2
:100BE000272043EA0263836291F8292091F82A3092
:100BF0001B0443EA022391F82820134391F82B2089
:100C000043EA0263C36291F82D2091F82E301B0451
:100C100043EA022391F82C20134391F82F2043EA52
:100C20000263036391F8312091F832301B0443EAE8
:100C3000022391F83020134391F8332043EA0263F2
:100C4000436391F8352091F836301B0443EA0223C0
:100C500091F83420134391F8372043EA0263836309
:100C600091F8383080F83C303920704700487047A0
:100C7000F0E800000048704704E90000F0B585B0D6
:100C800004460E46632903DD90F8F434002B5DD052
:100C900013681B68104604F21F21984785B2FF2392
:100CA00084F81832FE2384F81932C3B284F81A3259
:100CB0002A0A84F81B221344DB4384F81C3284F88C
:100CC0001D6246F3072684F81E62EB1D052B0ADD24
:100CD000184605230022E11891F818120A4401333E
:100CE0008342F8D100E0002205F1080189B2E81D35
:100CF00014FA80F0174B1340002B03DA013B63F02A
:100D0000FF030133DB4380F81832B1F5007F0DD8C3
:100D100004F506770E46D1B10025606803681B68AC
:100D2000795D98470135AE42F7DC10E00A4B01933C
:100D300003238DF80830094B039323681B68204672
:100D4000072101AA98474FF0FF3600E00026304601
:100D500005B0F0BDFF000080C0E5000028E90000FC
:100D6000006D704700487047F0E800000048704789
:100D700004E9000090F8F404704700BF2DE9F04149
:100D800084B005460C4683880B7083881B0A4B7021
:100D900080680DF02FFA064604AB43F80C0D186876
:100DA000C4F80200A01DA968324606F06FFC06F1E7
:100DB0000608E8680DF01EFA074604AB43F8080D74
:100DC000186844F808000A36A019E9683A4606F09F
:100DD0005DFC3E4428690DF00DFA074604AB43F86C
:100DE000040D1868A0510436A01929693A4606F086
:100DF0004DFCF0196B69235404441A0A62701A0CF2
:100E0000A2701B0EE370043004B0BDE8F08100BF97
:100E100070B485B006460B7883804A7843EA022393
:100E20008380D1F8020001900198851D062D08D914
:100E30004A1D062312F8014F02F8014C0133AB4260
:100E4000F8D30844002343714B1DB3604B19186855
:100E50000290281D029D0544A84206D202461C7934
:100E6000DC7001320133AA42F9D34B19002203F896
:100E7000012C01380844F06018680390281D039D78
:100E80000544A84206D202461C79DC7001320133C7
:100E9000AA42F9D34B19002203F8012C0138084467
:100EA000306158789A78120442EA0022495D0A4378
:100EB000DB7842EA03637361281D05B070BC70479C
:100EC00070B582B005460E4603790B7080680DF050
:100ED00091F9044602AB43F8040D1868C6F8010006
:100EE000701DA968224606F0D1FB601D02B070BDDE
:100EF00070B483B005460B4613F8012B02711868D5
:100F00000190019E701D052808D90A1D052312F8BD
:100F1000014F02F8014C01338342F8D30E44002301
:100F200033710431A96003B070BC70472DE9F04102
:100F300082B004460E4603790B7000234B708B7011
:100F4000CB700379B3B10B4600214FF00408E2687F
:100F500052F821201A71100A5871100C9871120E53
:100F6000DA7108F104080131C9B2043322798A42E6
:100F7000EDD801E04FF0040806EB0803227C06F8E8
:100F8000082000225A709A7008F10408DA70227C56
:100F900092B10020A26952F820201A71110A5971E9
:100FA000110C9971120EDA7108F104080130C0B207
:100FB0000433227C8242EDD8237F06F8083006EB0A
:100FC000080300225A709A7008F10408DA70237F2F
:100FD000E3B11546636A53F825000DF00BF9074697
:100FE00002AB43F8040D186846F8080008F104083D
:100FF000636A06EB080053F825103A4606F046FBF4
:10100000B8440135EDB2237FAB42E3D8404602B08D
:10101000BDE8F08170B582B004460D4643680B70A0
:1010200043681B0A4B70C3888B70C379CB7083688D
:101030000B7183681B0A4B7143898B71C37ACB7127
:10104000C3680B72C3681B0A4B72C3898B72C37B64
:10105000CB7200690DF0CEF8064602AB43F8040DE2
:101060001868E86005F110002169324606F00EFBB1
:1010700006F1100002B070BD70B483B005460B7865
:1010800043604A7843EA022343608A7843EA024392
:101090004360CA7843EA026343600B7983604A790C
:1010A00043EA022383608A7943EA02438360CA7970
:1010B00043EA026383600B7AC3604A7A43EA0223FD
:1010C000C3608A7A43EA0243C360CA7A43EA02638E
:1010D000C360C8680190019E06F11000102809D96C
:1010E00001F10F02102312F8014F02F8014C0133F5
:1010F0008342F8D30E440023F3730F31296103B008
:1011000070BC70472DE9F04182B006460F460C785E
:101110000379A34204D2C068A1000CF00DFEF06078
:101120003471CCB13B4600220424587999790904E2
:1011300041EA002118790143D87941EA0061B160A0
:101140000434F168B06841F822000132D2B20433AD
:1011500031799142E9D800E0042407EB04083D5DB1
:10116000337CAB4204D2B069A9000CF0E5FDB0615C
:1011700004343574BDB14346002258799979090485
:1011800041EA002118790143D87941EA006171618F
:101190000434B169706941F822000132D2B20433DB
:1011A000317C9142E9D817F80480337F434505D25A
:1011B000706A4FEA88010CF0BFFD7062251D86F849
:1011C0001C80B8F1000F22D04FF0000CE0467B19D4
:1011D00018680190291D019D0D44A94206D20A46B6
:1011E0001C79DC7001320133AA42F9D37B1903F870
:1011F000018C013939443162736A326A43F82C2018
:101200000CF1010C5FFA8CFC337F6345DFD8284674
:1012100002B0BDE8F08100BF10B50446383004F0DC
:1012200077FC204610BD00BF70B505460C464068EF
:101230000346C0F3C7520AB102F560720021217063
:101240006170A1705901E170D9102171D9126171D9
:10125000C3F3C34343EA0213A371160900210CF040
:10126000AFF908B9E67102E066F07F06E671A8689A
:101270000346C0F3C7520AB102F560720021217221
:101280006172A1725901E172D9102173D91261738F
:10129000C3F3C34343EA0213A373160900210CF0FE
:1012A0008FF908B9E67302E066F07F06E673E86836
:1012B0000346C0F3C7520AB102F5607200212174DF
:1012C0006174A1745901E174D9102175D912617545
:1012D000C3F3C34343EA0213A375150900210CF0BD
:1012E0006FF908B9E57502E065F07F05E57518202E
:1012F00070BD00BF70B505460C4640680346C0F39C
:10130000C7520AB102F56072002121706170A170AC
:101310005901E170D9102171D9126171C3F3C3432E
:1013200043EA0213A371160900210CF049F908B928
:10133000E67102E066F07F06E671A8680346C0F336
:10134000C7520AB102F56072002121726172A17266
:101350005901E172D9102173D9126173C3F3C343E8
:1013600043EA0213A373160900210CF029F908B906
:10137000E67302E066F07F06E673E8680346C0F3B2
:10138000C7520AB102F56072002121746174A17420
:101390005901E174D9102175D9126175C3F3C343A2
:1013A00043EA0213A375160900210CF009F908B9E4
:1013B000E67502E066F07F06E67528690346C0F32D
:1013C000C7520AB102F56072002121766176A176DA
:1013D0005901E176D9102177D9126177C3F3C3435C
:1013E00043EA0213A377150900210CF0E9F808B9C4
:1013F000E57702E065F07F05E577202070BD00BF4E
:1014000010B4CB785B0943600A7943EAC2034360B6
:101410004A7943EAC22343608C7904F00F0443EA1B
:10142000C44444608A79CB7903F07F031B0153EAFB
:10143000121304D0A3F5607344EAC3544460CA791C
:1014400002F08002436843EA02634360CB7A5B099F
:1014500083600A7B43EAC20383604A7B43EAC22378
:1014600083608C7B04F00F0443EAC44484608A7B6D
:10147000CB7B03F07F031B0153EA121304D0A3F5C7
:10148000607344EAC3548460CA7B02F080028368BC
:1014900043EA02638360CB7C5B09C3600A7D43EA55
:1014A000C203C3604A7D43EAC223C3608C7D04F05B
:1014B0000F0443EAC444C4608A7DCB7D03F07F03FC
:1014C0001B0153EA121304D0A3F5607344EAC3541A
:1014D000C460CA7D02F08002C36843EA0263C3604D
:1014E00018205DF8044B704770B505460C468068BF
:1014F0000346C0F3C7520AB102F5607200212170A1
:101500006170A1705901E170D9102171D912617116
:10151000C3F3C34343EA0213A371160900210CF07D
:101520004FF808B9E67102E066F07F06E671E868F8
:101530000346C0F3C7520AB102F56072002121725E
:101540006172A1725901E172D9102173D9126173CC
:10155000C3F3C34343EA0213A373160900210CF03B
:101560002FF808B9E67302E066F07F06E673286993
:101570000346C0F3C7520AB102F56072002121741C
:101580006174A1745901E174D9102175D912617582
:10159000C3F3C34343EA0213A375160900210CF0F9
:1015A0000FF808B9E67502E066F07F06E675A869EF
:1015B0000346C0F3C7520AB102F5607200212176DA
:1015C0006176A1765901E176D9102177D912617738
:1015D000C3F3C34343EA0213A377160900210BF0B8
:1015E000EFFF08B9E67702E066F07F06E677E86984
:1015F0000346C0F3C7520AB102F56072002184F8B5
:10160000201084F8211084F82210590184F8231046
:10161000D91084F82410D91284F82510C3F3C343D9
:1016200043EA021384F82630160900210BF0C8FFA4
:1016300010B984F8276003E066F07F0684F827601D
:10164000286A0346C0F3C7520AB102F5607200214E
:1016500084F8281084F8291084F82A10590184F895
:101660002B10D91084F82C10D91284F82D10C3F344
:10167000C34343EA021384F82E30160900210BF00D
:101680009FFF10B984F82F6003E066F07F0684F8AE
:101690002F60686A0346C0F3C7520AB102F5607250
:1016A000002184F8301084F8311084F83210590188
:1016B00084F83310D91084F83410D91284F8351016
:1016C000C3F3C34343EA021384F8363015090021FB
:1016D0000BF076FF10B984F8375003E065F07F0512
:1016E00084F83750382070BD10B4CB785B09436064
:1016F0000A7943EAC20343604A7943EAC22343605A
:101700008C7904F00F0443EAC44444608A79CB79AD
:1017100003F07F031B0153EA121304D0A3F5607397
:1017200044EAC3544460CA7902F08002436843EA41
:1017300002634360CB7A5B0983600A7B43EAC2039E
:1017400083604A7B43EAC22383608C7B04F00F04EE
:1017500043EAC44484608A7BCB7B03F07F031B0194
:1017600053EA121304D0A3F5607344EAC3548460AF
:10177000CA7B02F08002836843EA02638360CB7C09
:101780005B09C3600A7D43EAC203C3604A7D43EA42
:10179000C223C3608C7D04F00F0443EAC444C460D8
:1017A0008A7DCB7D03F07F031B0153EA121304D023
:1017B000A3F5607344EAC354C460CA7D02F080029A
:1017C000C36843EA0263C360CB7E5B0903610A7F9F
:1017D00043EAC20303614A7F43EAC22303618C7F69
:1017E00004F00F0443EAC44404618A7FCB7F03F012
:1017F0007F031B0153EA121304D0A3F5607344EA7C
:10180000C3540461CA7F02F08002036943EA0263A1
:10181000036120205DF8044B704700BF2DE9F043C1
:1018200083B005460E4683680B7083681B0A4B70B5
:1018300043898B70C37ACB70C3680B71C3681B0A72
:101840004B71C3898B71C37BCB7103690B720369C5
:101850001B0A4B72438A8B72C37CCB7240690CF0BB
:10186000C9FC044601900DF1080858F8040DF06019
:1018700006F110006969224605F008FF04F110091D
:10188000A8690CF0B7FC07460190D8F8000046F8AC
:10189000090014343019A9693A4605F0F7FE2744C7
:1018A000F419686A0346C0F3C7520AB102F56072C0
:1018B0000021F1556170A1705901E170D9102171B9
:1018C000D9126171C3F3C34343EA0213A37116092A
:1018D00000210BF075FE08B9E67102E066F07F06A4
:1018E000E671A86A0346C0F3C7520AB102F56072F6
:1018F000002121726172A1725901E172D910217324
:10190000D9126173C3F3C34343EA0213A3731609E5
:1019100000210BF055FE08B9E67302E066F07F0681
:10192000E673E86A0346C0F3C7520AB102F5607273
:10193000002121746174A1745901E174D9102175D9
:10194000D9126175C3F3C34343EA0213A3751609A1
:1019500000210BF035FE08B9E67502E066F07F065F
:10196000E675686B0346C0F3C7520AB102F56072B0
:10197000002121766176A1765901E176D91021778F
:10198000D9126177C3F3C34343EA0213A37716095D
:1019900000210BF015FE08B9E67702E066F07F063D
:1019A000E677A86B0346C0F3C7520AB102F560722E
:1019B000002184F8201084F8211084F822105901A5
:1019C00084F82310D91084F82410D91284F8251033
:1019D000C3F3C34343EA021384F8263016090021F7
:1019E0000BF0EEFD10B984F8276003E066F07F0687
:1019F00084F82760E86B0346C0F3C7520AB102F5CA
:101A00006072002184F8281084F8291084F82A10C4
:101A1000590184F82B10D91084F82C10D91284F8AD
:101A20002D10C3F3C34343EA021384F82E30160982
:101A300000210BF0C5FD10B984F82F6003E066F0BB
:101A40007F0684F82F60286C0346C0F3C7520AB1A2
:101A500002F56072002184F8301084F8311084F8A7
:101A60003210590184F83310D91084F83410D91287
:101A700084F83510C3F3C34343EA021384F83630C5
:101A8000150900210BF09CFD10B984F8375003E0D4
:101A900065F07F0584F8375007F1380003B0BDE8E2
:101AA000F08300BF10B4CB785B0983600A7943EA06
:101AB000C20383604A7943EAC22383608C7904F0CD
:101AC0000F0443EAC44484608A79CB7903F07F032E
:101AD0001B0153EA121304D0A3F5607344EAC35404
:101AE0008460CA7902F08002836843EA02638360FB
:101AF000CB7A5B09C3600A7B43EAC203C3604A7BBB
:101B000043EAC223C3608C7B04F00F0443EAC4445D
:101B1000C4608A7BCB7B03F07F031B0153EA121363
:101B200004D0A3F5607344EAC354C460CA7B02F0D6
:101B30008002C36843EA0263C360CB7C5B09036134
:101B40000A7D43EAC20303614A7D43EAC22303617B
:101B50008C7D04F00F0443EAC44404618A7DCB7D8C
:101B600003F07F031B0153EA121304D0A3F5607343
:101B700044EAC3540461CA7D02F08002036943EA67
:101B800002630361CB7E5B0983610A7F43EAC20380
:101B900083614A7F43EAC22383618C7F04F00F0490
:101BA00043EAC44484618A7FCB7F03F07F031B0137
:101BB00053EA121304D0A3F5607344EAC35484615A
:101BC000CA7F02F08002836943EA0263836191F86D
:101BD00023305B09C36191F8242043EAC203C36147
:101BE00091F8252043EAC223C36191F8264004F00E
:101BF0000F0443EAC444C46191F8262091F82730C9
:101C000003F07F031B0153EA121304D0A3F56073A2
:101C100044EAC354C46191F8272002F08002C369EA
:101C200043EA0263C36191F82B305B09036291F8C8
:101C30002C2043EAC203036291F82D2043EAC22319
:101C4000036291F82E4004F00F0443EAC444046296
:101C500091F82E2091F82F3003F07F031B0153EAF7
:101C6000121304D0A3F5607344EAC354046291F8DC
:101C70002F2002F08002036A43EA0263036291F8B4
:101C800033305B09436291F8342043EAC203436274
:101C900091F8352043EAC223436291F8364004F0BC
:101CA0000F0443EAC444446291F8362091F8373077
:101CB00003F07F031B0153EA121304D0A3F56073F2
:101CC00044EAC354446291F8372002F08002436A28
:101CD00043EA0263436238205DF8044B704700BF5B
:101CE00008B54A788B781B0443EA02230A78134329
:101CF000CA7843EA026303614A798B791B0443EA99
:101D000002230A791343CA7943EA026343614A7A98
:101D10008B7A1B0443EA02230A7A1343CA7A43EA02
:101D2000026383614A7B8B7B1B0443EA02230A7BA9
:101D30001343CA7B43EA0263C3614A7C8B7C1B0466
:101D400043EA02230A7C1343CA7C43EA0263036228
:101D50004A7D8B7D1B0443EA02230A7D1343CA7D1F
:101D600043EA026343624A7E8B7E1B0443EA0223FA
:101D70000A7E1343CA7E43EA026383624A7F8B7FF3
:101D80001B0443EA02230A7F1343CA7F43EA026328
:101D9000C36291F8212091F822301B0443EA022308
:101DA00091F82020134391F8232043EA0263036350
:101DB00091F8252091F826301B0443EA022391F87C
:101DC0002420134391F8272043EA0263436391F8E8
:101DD000292091F82A301B0443EA022391F8282095
:101DE000134391F82B2043EA0263836391F82D207B
:101DF00091F82E301B0443EA022391F82C20134360
:101E000091F82F2043EA0263C36391F8312091F8DF
:101E100032301B0443EA022391F83020134391F837
:101E2000332043EA0263036491F8352091F8363099
:101E30001B0443EA022391F83420134391F837201E
:101E400043EA0263436491F8383080F84830C36C49
:101E50000C30984708BD00BF70B483B003460A78C1
:101E60008260487842EA00229A60887842EA00421A
:101E70009A60C87842EA00629A600A79DA60487922
:101E800042EA0022DA60887942EA0042DA60C879E0
:101E900042EA0062DA600A7A1A61487A42EA00226B
:101EA0001A61887A42EA00421A61C87A42EA0062FC
:101EB0001A61C8680190019E06F11005102D09D91C
:101EC00001F10F00102210F8014F00F8014C01320F
:101ED000AA42F8D30E440022F27301F10F025A61B4
:101EE0004A19106801902E1D01983044864206D28E
:101EF00034461579D570013401328442F9D30A1879
:101F0000002402F8014C013E31449961D17849091D
:101F10005962147941EAC4015962547941EAC421F1
:101F20005962957905F00F0541EAC5455D629479DE
:101F3000D17901F07F01090151EA141104D0A1F512
:101F4000607145EAC1555D62D47904F08004596A34
:101F500041EA04615962D17A49099962147B41EAE4
:101F6000C4019962547B41EAC4219962957B05F0D2
:101F70000F0541EAC5459D62947BD17B01F07F014D
:101F8000090151EA141104D0A1F5607145EAC15567
:101F90009D62D47B04F08004996A41EA04619962ED
:101FA000D17C4909D962147D41EAC401D962547DCA
:101FB00041EAC421D962957D05F00F0541EAC54586
:101FC000DD62947DD17D01F07F01090151EA141198
:101FD00004D0A1F5607145EAC155DD62D47D04F0FD
:101FE0008004D96A41EA0461D962D17E4909596302
:101FF000147F41EAC4015963547F41EAC421596303
:10200000957F05F00F0541EAC5455D63947FD17F5B
:1020100001F07F01090151EA141104D0A1F56071AA
:1020200045EAC1555D63D47F04F08004596B41EAF1
:102030000461596392F823104909996392F8244086
:1020400041EAC401996392F8254041EAC4219963A9
:1020500092F8265005F00F0541EAC5459D6392F8B8
:10206000264092F8271001F07F01090151EA14116E
:1020700004D0A1F5607145EAC1559D6392F82740EF
:1020800004F08004996B41EA0461996392F82B1083
:102090004909D96392F82C4041EAC401D96392F806
:1020A0002D4041EAC421D96392F82E5005F00F0566
:1020B00041EAC545DD6392F82E4092F82F1001F0F9
:1020C0007F01090151EA141104D0A1F5607145EABC
:1020D000C155DD6392F82F4004F08004D96B41EACA
:1020E0000461D96392F833104909196492F83440B5
:1020F00041EAC401196492F8354041EAC4211964E7
:1021000092F8365005F00F0541EAC5451D6492F876
:10211000364092F8371001F07F01090151EA14119D
:1021200004D0A1F5607145EAC1551D6492F83710DD
:1021300001F080011A6C42EA01621A64383003B07F
:1021400070BC70472DE9F04F91B004469F4B1B685F
:102150000293029DD0F8FC34EB1A42F6F822934227
:1021600084BF002380F8F434D0F8E03433B1D0F8E1
:102170000035AB423CBF0023C0F8E034944E954F8D
:10218000DFF8608260680368DB6898470028C0F267
:102190003A82D4F8F0240244C4F8F024D4F8E034AD
:1021A000072B11D1D4F8EC345A1CC4F8EC24234486
:1021B0001876D4F8E434013BC4F8E434002BE1D1C0
:1021C0000823C4F8E034DDE7B3B9FF2807D10123C1
:1021D000C4F8E03405F11403C4F80035D2E77B4BB2
:1021E0001B680393039B5B1B052BCBD9002384F84F
:1021F000F4346FF0010027E2012B1DD1FE2803D13A
:102200000223C4F8E034BDE70023C4F8E03494F8B6
:10221000F434002BB6D1704B0A9300230B930C932C
:1022200023681B6820460A210AAA9847674B1B6847
:102230000493049BE360A5E7022B0AD1C4F8E404ED
:102240000023C4F8EC340323C4F8E034C4F8F004E9
:1022500098E7032B09D1D4F8E43403EB0023C4F846
:10226000E4340423C4F8E0348CE7042B0CD132406E
:1022700003D5013A62F0FF020132FF2A0CBF0523A9
:102280000023C4F8E0347DE7052B07D1C4F8E80447
:102290000623C4F8E034C4F8F00473E7062B11D128
:1022A000D4F8E83403EB0023C4F8E8340723C4F877
:1022B000E034D4F8E434002B7FF464AF0823C4F88E
:1022C000E0345FE7082B7FF45DAF0023C4F8E0340F
:1022D000324003D5013A62F0FF020132FF2A7FF457
:1022E00051AFD4F8E834002B7ED13B4B0A93002643
:1022F0000B960C9623681B6820460A210AAA984769
:10230000324B1B680593059BE360344B0A93ADF891
:102310002C60334B0C930D930E930F9604F583664C
:1023200004F27C484FF4007756F8043BDBB19A681E
:10233000ADF82C2056F8042C12680C9258680368EB
:102340009B6898470D9056F8043C58680368DB6812
:1023500098470E900F97226856F8041C1368204681
:1023600009690AAA98474645DED104F27C4604F57D
:102370009C684FF4007756F8040BD8B14368ADF869
:102380002C3083680C9303689B6898470D9056F82F
:10239000040C0368DB6898470E900F972368D3F806
:1023A000009056F8040C03685B6898470146204685
:1023B0000AAAC8474645DED1012384F8F434C4F89C
:1023C000F854C4F8FC544FF0FF303DE1A09DFF1FCE
:1023D000FF000080D34D621090E50000A8E50000EA
:1023E00060E9000000CA9A3B0A2B46D1DFF86892E8
:1023F000D9F800300793079AE368C3EB020E627EB8
:10240000A37E1B0443EA0222237E1343E27E43EAB7
:102410000262617FA37F1B0443EA0121237F0B43F8
:1024200094F81FC043EA0C6CD9F80030089308995F
:10243000A7FB0E308009A7FB01A39B09C3EB000A91
:102440000AF1FF3A524422614FF47A7202FB10E023
:1024500002FB1313C21A7E4B02FB038363446361C6
:1024600004F1100004F1140105F0FCF8D9F8003073
:102470000693069BC4F8FC3484E6062B40F0B0803B
:1024800004F1180994F818A094F80C35534507D2B4
:10249000D4F814054FEA8A010BF04EFCC4F8140579
:1024A00084F80CA5BAF1000F1FD04B4600224FF064
:1024B000040A58799979090441EA002019790143FD
:1024C000D87941EA0061C4F810150AF1040AD4F879
:1024D0001415D4F8100541F822000132D2B20433A9
:1024E00094F80C159142E4D801E04FF0040A09EB8E
:1024F0000A03019319F80AB094F818355B4507D21E
:10250000D4F820054FEA8B010BF016FCC4F8200527
:102510000AF1040A84F818B5BBF1000F1CD0019B26
:10252000002258799979090441EA00201979014378
:10253000D87941EA0061C4F81C150AF1040AD4F8FC
:102540002015D4F81C0541F822000132D2B2043320
:1025500094F818159142E4D819F80AB094F8243583
:102560005B4507D2D4F82C054FEA8B010BF0E4FB56
:10257000C4F82C050AF1040A84F824B5BBF1000F55
:102580002AD04FF0000EF44609EB0A0318680A90AF
:102590000AF104000A9A00EB020A824506D90246B3
:1025A0001979D970013201339245F9D809EB0A0340
:1025B00003F801CC431E4B44C4F82835D4F82C351D
:1025C000D4F8282543F82E200EF1010E5FFA8EFE76
:1025D00094F824357345D7D8012384F80435D1E520
:1025E0000B2B03D1002384F8F434CBE504EB8303F5
:1025F000D3F8EC0200283FF4C5AD03681B6804F172
:1026000018019847BEE594F8F434D3B1D4F8F834FF
:10261000EB1A40F6C412934215D90E4B0A930026CA
:102620000B960C9623681B6820460A210AAA984735
:10263000094B1B680993099BE360C4F8F8543046C2
:1026400002E0002000E0002011B0BDE8F08F00BFE4
:1026500040420F0090E50000A09DFF1FF0B58DB037
:10266000274E284C606828490AF00CFE4FF0814143
:102670000AF008FE25490AF0B9FE306020682449B6
:102680000AF000FE4FF081410AF0FCFD1F490AF0FC
:10269000ADFE70601F4B18681F490AF0E9FC4FF04F
:1026A00081410AF0EFFD1C490AF0A0FEB060A0686D
:1026B0000AF074F904460D4608F08EFB0AF084FC1B
:1026C000074603902046294608F0C4FB0AF07CFC2C
:1026D00000F10043049300230593069007970893A5
:1026E00009930A934FF07E530B9303A831466A4631
:1026F000FDF784FF68463146FDF7C8FE0DB0F0BD1A
:102700002897FF1F9096FF1F0000A040DB0F494055
:102710000000A0C09094FF1F0000484370B58CB02B
:10272000344D68684FF081410AF0ACFD32490AF03F
:102730005DFE0646314C2060286800F100404FF0F5
:1027400081410AF09FFD2C490AF050FE0546606069
:102750002B4B18682B490AF095FD2B490AF046FED1
:102760004FF07E510AF084FCA060304627490AF001
:1027700045FF30B1304626490AF022FF08B1002259
:102780002260284621490AF039FF38B128462049FD
:102790000AF016FF10B10022184B5A60154B9868CA
:1027A0000AF0FCF804460D4608F016FB0AF00CFC93
:1027B000064603902046294608F04CFB0AF004FC2C
:1027C00000F10043049300230593069007960893B5
:1027D00009930A934FF07E530B93084C03A82146AC
:1027E0006A46FDF70BFF68462146FDF74FFE0CB029
:1027F00070BD00BF9096FF1FDB0F4940A494FF1FE0
:102800009094FF1F000040400000C843CDCC4CBD59
:10281000CDCC4C3D70B50546184B1C682046214672
:102820000AF030FD16490AF0E9FE48B1154E20467F
:1028300029460AF027FD014630680AF01BFC30608B
:102840000E4B5C68204621460AF01CFD0C490AF03C
:10285000D5FE48B10B4E284621460AF013FD01462D
:1028600070680AF007FC7060044B9868064B1968A2
:102870000AF000FC034B986070BD00BFA494FF1FDA
:1028800017B7D138F094FF1FC495FF1FF8B507465E
:102890000D46144610464FF07E510AF0E9FB2146E2
:1028A0000AF0A4FD29680AF0EDFC064638682146C6
:1028B0000AF09CFD014630460AF0DCFB2860F8BDBA
:1028C00070B50D4E0D480E493246FFF7DFFF0D4D36
:1028D0000D4C284621463246FFF7D8FF281D211D02
:1028E0003246FFF7D3FF05F1080004F10801074A5B
:1028F000FFF7CCFF70BD00BF00002041D495FF1F43
:102900009094FF1FC893FF1F9096FF1F0000F04197
:1029100008B51E4B1B68002B28DD1D4B93F90030BA
:10292000012B2FD11B4B1B78002B2BD01A4B1B6874
:10293000022B23D1FFF7F2FE184A194B19681160D8
:10294000596851609868174B99680AF091FB164BCB
:102950001860164B164A11681960516859609268E0
:102960009A600A4B1A68013A1A6008BD084B93F93D
:102970000030012B06D1074B1B781BB1064B1B689F
:10298000022B02D0C822014B1A6008BD8487FF1FAA
:102990007087FF1FCE96FF1FA096FF1FF094FF1FAA
:1029A0008494FF1FA494FF1FC495FF1FA496FF1FCC
:1029B0003096FF1F10B40023064C0022064807493A
:1029C0001A511A505A500433302BF9D15DF8044B88
:1029D000704700BFE093FF1F1094FF1F4094FF1F3C
:1029E0002DE9F84307460E46294B1D780068294912
:1029F0000AF048FC31460AF045FC274B43F8250015
:102A0000264C21680AF036FB81462060786821490F
:102A10000AF038FC31460AF035FC214B43F825001A
:102A200061680AF027FB80466060B86819490AF0BF
:102A300029FC31460AF026FC1A4B43F82500A16810
:102A40000AF018FB06460135EDB20C2D02D0104BF2
:102A50001D7002E000220E4B1A700D4B1D780F4CBA
:102A600048460D4B53F825100AF002FB2060404603
:102A70000B4B53F825100AF0FBFA60603046094B07
:102A800053F825100AF0F4FAA060BDE8F88300BFFF
:102A90008096FF1FCDCC1C41E093FF1FD493FF1FF6
:102AA0001094FF1F4094FF1F70B505460024054E8B
:102AB0002859A1590AF0DEFA285104340C2CF7D118
:102AC00070BD00BFD493FF1F70B50346174A41681D
:102AD000116081685160C16891600169D160144AD8
:102AE0004169116081695160C1699160056A11484D
:102AF00005605C6A4460996A81600F4ADE6A16600C
:102B00001E6B56605E6B96609E6B0C4A166093F867
:102B10003C200B4B1A7001220A4B1A700A4B1D60A5
:102B20005C609960FFF7C0FF70BD00BF3897FF1F62
:102B30008494FF1F3096FF1FFC94FF1F3488FF1FF3
:102B40007087FF1FEC94FF1F9894FF1F08B5162095
:102B50000A2105F0D9F917200A2105F0D5F914202A
:102B60000A2105F0D1F915200A2105F0CDF908BD9B
:102B700008B516204FF4C87105F0C6F917204FF4B8
:102B8000C87105F0C1F914204FF4C87105F0BCF903
:102B900015204FF4C87105F0B7F908BD08B5162027
:102BA000044905F08FF80D2005F080F8FFF7CEFFFF
:102BB00008BD00BF00007A4410B5044616202188E5
:102BC00005F0A2F91720618805F09EF91420A1886C
:102BD00005F09AF91520E18805F096F910BD00BFBF
:102BE0002DE9F04782B00446ADF102050DF1060A69
:102BF0004FF00008134FDFF8509054F8046B304644
:102C000041460AF0DDFC10B144F8048C06E0304681
:102C100039460AF0F3FC08B144F8047C54F8040C7B
:102C200049460AF02FFB39460AF0E0FB0AF016FD90
:102C300025F8020F5545E0D16846FFF7BDFF02B009
:102C4000BDE8F0870000C84200F8FF45FFFFFFFF26
:102C50002DE9F04780468A46002611A5D5E90045B2
:102C6000DFF84C9058F8060009F098FE08F058F983
:102C700022462B4609F0E6FE0BA3D3E9002309F018
:102C80002FFD0AF0A1F9074649460AF0B7FC00B14A
:102C90004F464AF806700436102EE3D1BDE8F0879F
:102CA0000000008093180240000000A099990440A1
:102CB00000004842AFF300802DE9F04192B08B4C08
:102CC00004F10C078A4EDFF8708254F8045B284642
:102CD00031460AF075FC10B144F8046C06E0284651
:102CE00041460AF08BFC08B144F8048CBC42ECD19C
:102CF0007E4880496A46FDF727FC0023039304932E
:102D00007D4B0593684603A906AAFDF731FC06A88A
:102D1000FDF7C2FD044679490AF070FC002852D044
:102D20006846FDF7B9FD01460AF0ACFA0746059C76
:102D300002984FF040410AF0A5FA21460AF0A2FAA3
:102D4000064601460AF09EFA054638464FF0814194
:102D50000AF098FA8046204621460AF093FA68491C
:102D60000AF086F9014640460AF08CFA01462846E8
:102D70000AF07EF909F012FE08F0D2F804460D467A
:102D800006F1004009F00AFE22462B4609F0A8FC95
:102D900000225C4B09F056FE04460D46384609F009
:102DA000FDFD02460B462046294609F075FF0AF054
:102DB0000BF901466846FDF7B5FB684603A906AA6C
:102DC000FDF7D6FB4D4C20464FF07A510AF05AFAE7
:102DD0004D490AF057FA4D490AF008FB4C4B186070
:102DE0004FF07E5021460AF001FB014606A809AAD1
:102DF000FDF7AAFB474B986809F0D0FD04460D4645
:102E000007F0EAFF0AF0E0F80C902046294608F0A7
:102E100021F80AF0D9F80D9000230E9309A80CA907
:102E20000FAAFDF709FD0FA8FDF736FD3A490AF094
:102E3000E5FB002856D00FA8FDF72EFD01464FF008
:102E40007E500AF0D3FA01460FA8FDF76BFB0FA8DE
:102E500009A90CAAFDF7F0FC0C9E109D0B9C3046B6
:102E600029460AF007F921460AF004F907462B49DA
:102E70000AF0C4FB28B9384629490AF0A1FB00280A
:102E800030D0284B1E600F9A5A60099A9A600D9AAA
:102E9000DA601D610A9A5A610E9A9A61119ADA6192
:102EA0001C6205F029F90AF095F905461E4C2168C7
:102EB0000AF0DEF80646256000210AF09FFB68B1A3
:102EC0001A4C18481A492246FDF766FB1948314644
:102ED0000AF08CFA01462046FDF7F4FA114814492D
:102EE000FDF7C0FA12B0BDE8F08100BFE096FF1F09
:102EF000000020C0AE47213F6991C5C019047E4142
:102F0000220C7C430000E03F00007A44CDCC1C4101
:102F10005497FF1F9096FF1F6F12833A77BE7FBFB3
:102F2000C52080BFD887FF1F3C96FF1FBC94FF1FA2
:102F3000B087FF1F00247449000020402DE9F04FA6
:102F4000C3B081466A4C20460CA9FDF7A7FA694D2B
:102F5000284615A9FDF7A2FA0CA829461EAAFDF7D6
:102F600097FB15A8214627AAFDF792FB1EA827A9C3
:102F700030AAFDF711FB30A86946FDF7AFFC6846A3
:102F80004FF07C51FDF7CEFA0CA85B4939AAFDF74A
:102F90007FFB39A803A9FDF7A1FC27A803A906AA6E
:102FA000FDF72CFB554806A909AAFDF7E1FA09AC83
:102FB0000CAF534EDFF85CA1DFF85CB1DFF85C8149
:102FC00054F8045B284631460AF018FB10B144F867
:102FD000048C06E0284651460AF0F2FA08B144F89B
:102FE00004BCBC42ECD1474CADF104050DF1080B1B
:102FF000DFF82CA14FF07C584FF03F4754F8046B9A
:10300000484655F8041F0AF03DF951460AF0EEF91A
:10301000014630460AF02EF8064641460AF0EEFA1E
:1030200010B944F8046C01E044F8048C354B58683E
:1030300039460AF0C5FA08B144F8047C5D45DDD193
:10304000314CDFF8E080D8F8000000F10040009932
:103050000AF018F905462D4F2A4E386831680AF0F3
:1030600011F9014628460AF003F88146284D2868E0
:1030700009990AF007F90146484609F0F9FF20606E
:10308000D8F8040000F1004001990AF0FBF88146ED
:10309000786871680AF0F6F80146484609F0E8FFDA
:1030A000814668680A990AF0EDF80146484609F039
:1030B000DFFF6060D8F8080000F1004002990AF0D4
:1030C000E1F88046B868B1680AF0DCF8014640468D
:1030D00009F0CEFF0646A8680B990AF0D3F801461E
:1030E000304609F0C5FFA06043B0BDE8F08F00BFD7
:1030F000D887FF1F1088FF1FBC94FF1F989CFF1FDD
:10310000000048428496FF1FB094FF1F0088FF1FF5
:103110006487FF1F000048C20000F0C10000F041BA
:10312000002474497887FF1F70B50D4EF06809F0D0
:1031300035FC04460D46306809F030FC02460B466B
:103140002046294607F0EAFE09F03EFF054B98604D
:10315000054B9860054B00221A605A609A6070BD5A
:103160001088FF1F9096FF1FC893FF1F8496FF1FB4
:1031700030B58BB001AC074D0FCD0FC40FCD0FC4D0
:103180002B68236001A80449044AFDF737FA0BB005
:1031900030BD00BFA8E60000B094FF1FB895FF1F28
:1031A0002DE9F0478AB001AC9B4D0FCD0FC40FCD78
:1031B0000FC42B682360DFF8788201A89749424644
:1031C000FDF71CFA964B1D682846294609F052FF68
:1031D0000446D8F80860D8F80470D8F80080304663
:1031E000394609F045FF414609F044FF01462846AB
:1031F00009F040FF81468B490AF0E2F9002840F0CF
:103200004981204649460AF0DBF958B14FF0010ADE
:10321000204685490AF0F2F908B94FF0000A5FFA32
:103220008AF311E048467F490AF0CAF9002840F0C5
:1032300050814FF0010A48467B490AF0DFF908B98E
:103240004FF0000A5FFA8AF39BB9484675490AF0C5
:10325000B7F9002840F03D81204649460AF0B0F910
:1032600050B948466F490AF0ABF940B1DFF8B49164
:1032700005E0DFF8B49102E0A14600E0A1466B4B07
:10328000C3F8009006F10040394609F0F1FE4146CE
:1032900009F0EEFE0146284609F0ECFE8146614940
:1032A0000AF08EF9002840F0FD80204649460AF0D9
:1032B00087F958B14FF0010A20465B490AF09EF9A0
:1032C00008B94FF0000A5FFA8AF311E04846554901
:1032D0000AF076F9002840F004814FF0010A4846D0
:1032E00051490AF08BF908B94FF0000A5FFA8AF3E6
:1032F0009BB948464B490AF063F9002840F0F18039
:10330000204649460AF05CF950B9484645490AF05A
:1033100057F940B1DFF80C9105E0DFF80C9102E0BD
:10332000A14600E0A146414BC3F80490304639461F
:1033300009F0A0FE414609F09BFE0146284609F02F
:1033400099FE814637490AF03BF9002840F0B280E7
:10335000204649460AF034F958B14FF0010A204698
:1033600031490AF04BF908B94FF0000A5FFA8AF3C5
:1033700011E048462B490AF023F9002840F0B980B3
:103380004FF0010A484628490AF038F908B94FF0C9
:10339000000A5FFA8AF39BB9484622490AF010F9FD
:1033A000002840F0A680204649460AF009F950B9A5
:1033B00048461C490AF004F940B1DFF8689005E07E
:1033C000DFF8649002E0A14600E0A146174BC3F885
:1033D00008903846314609F04BFE0146404609F058
:1033E00049FE0146284609F045FE05460D490AF00A
:1033F000E7F8002866D1204629460AF0E1F8C8B16E
:103400004FF00106204608490AF0F8F808B94FF0D5
:103410000006F3B21EE000BFCCE60000B895FF1F27
:103420005497FF1F0000A0410000E143F091FF1FEF
:103430000895FF1F284638490AF0C2F8002860D1D5
:103440004FF00106284635490AF0D8F808B94FF080
:103450000006F3B28BB928462F490AF0B1F80028CC
:103460004FD1204629460AF0ABF848B928462A49E8
:103470000AF0A6F818B1284C02E0284C00E02C46CF
:103480002748C460274C2146FFF7E2FB2046FFF7A0
:10349000A7FB3DE0204620490AF092F800287FF47F
:1034A000B5AE16E020461C490AF08AF800287FF4E1
:1034B00001AF16E0204618490AF082F800287FF490
:1034C0004CAF16E0204614490AF07AF8002897D14C
:1034D00017E0204610490AF073F800287FF4CEAEBA
:1034E000C4E620460C490AF06BF800287FF41AAFB6
:1034F00010E7204608490AF063F800287FF465AF1A
:103500005BE7204604490AF05BF80028B8D1B2E72F
:103510000AB0BDE8F08700BF0000A0410000E14311
:10352000F091FF1F1495FF1F2DE9F84F1C4BD3F8A6
:1035300008B01C4BD3F804A00024DFF87890DFF823
:103540007880194F4FF08146584654F8081009F01A
:1035500099FE014654F8090009F08AFD05465046D7
:10356000E15909F08FFE0146284609F081FD054624
:1035700031460AF043F810B10C4AA6500AE028463A
:103580000B490AF01DF810B9084BE55002E0084B52
:10359000064AA35004340C2CD6D1BDE8F88F00BFE6
:1035A0009487FF1FA087FF1FE094FF1F4897FF1F0E
:1035B000000080C02897FF1F4096FF1F2DE9F04FA5
:1035C00089B0754B1B7863B9744B1B88B3F5C87F02
:1035D00003D20133714A1380DBE00422704B1A706E
:1035E000D7E000226D4B1A8004F086FD09F0F2FD51
:1035F00007466C4B1C6821460AF000F8002800F0D2
:10360000C3802046684909F0F9FF002800F0BC801B
:103610003846214609F02CFD0690644B5A68059205
:1036200002F10045624A12680192624A12680292EF
:103630001B680393604B1B680493002426464FF0DD
:10364000804B4FF0814A07972F46012E07DC5B4BDA
:10365000E0585B4BE15809F00BFD054601E0574B84
:10366000E5582846574909F0C9FF28B92846564960
:1036700009F0A6FF10B902E0524D00E0524D534B45
:10368000E058534BE15809F0F3FC80462846394690
:1036900009F0B4FF30B32846059909F091FF08B34B
:1036A00040464FF07C5109F0A9FF30B940464FF039
:1036B0003F4109F085FF18B904E04FF07C5801E064
:1036C0004FF03F48DFF810914046069909F0DAFDC7
:1036D000404909F08BFE014654F8090009F0CAFC84
:1036E00049F804003C4B54F803904846594609F009
:1036F00085FF18B1384B44F803B009E048464FF055
:10370000404109F05DFF18B1334B4FF04042E250A9
:103710000198414609F0B6FD00F10048029829469B
:1037200009F0B0FD0146404609F0A2FC05460398A9
:10373000294BE15809F0A6FD0146284609F098FCFE
:1037400005460498254BE15809F09CFD01462846A2
:1037500009F08EFC0546514609F050FF18B1204B88
:1037600044F803A00AE028461E4909F029FF10B9D1
:103770001B4BE55002E01A4B1A4AE2500136043462
:10378000032E7FF462AF079F064B1F600022024B9F
:103790001A7009B0BDE8F08FEC94FF1F3497FF1F3B
:1037A0007087FF1F909CFF1F17B7D1389487FF1FAA
:1037B000A087FF1F8887FF1F7487FF1F3096FF1F9A
:1037C000A494FF1F00004040000040C08494FF1FED
:1037D000F094FF1F002474494096FF1FE094FF1FE0
:1037E0004897FF1F000080C008B5134B1B7863B9D2
:1037F000124B1B88B3F5C87F03D201330F4A1380E5
:1038000008E004220E4B1A7004E000230A4A1370E9
:103810000A4A138004F070FC09F0DCFC094B1860C4
:10382000094B1B7813B1094B1B7823B9084B0022B5
:103830001A605A609A6008BDEC94FF1F3497FF1F0E
:103840007087FF1F909CFF1F3697FF1F7094FF1F0C
:103850004096FF1F70B50A4E0A4D0B4C3046294664
:103860006268FFF713F8301D291D6268FFF70EF834
:1038700006F1080005F108016268FFF707F870BD5E
:103880004897FF1FE096FF1F8887FF1F10B504466B
:103890000D4B93F90030012B0BD10C4B1B6843B936
:1038A000FEF73CFF20460A4909F0A0FDFEF7B2FFF3
:1038B00010BDFEF7D3FEFFF7CDFFFFF735FEFFF794
:1038C00093FFFFF7F9F910BD7087FF1F8487FF1F73
:1038D0000024744908B5074B93F90030012B08D137
:1038E000054B1B682BB9FFF769FEFFF7B3FFFFF726
:1038F000E3F908BD7087FF1F8487FF1F08B5FFF736
:103900001DFBFFF735FCFFF74BFC08BD2DE9F84325
:1039100081460D460024DFF830800A4F2859414681
:1039200009F0B0FC064659F80400394609F05EFD7E
:103930000146304609F09EFB285104340C2CEDD191
:10394000BDE8F8830000A0413333733F2DE9F04F09
:103950008BB04C4D4C4B00934C4C01944C4B1B6822
:1039600002934C4B93F9003003934B4B04934B4819
:1039700029464B4A4B4B03F0D9FD0023236063607B
:10398000A360E3606F683846394609F073FB06466A
:10399000D5F808904846494609F06CFB80464846F1
:1039A000414609F06FFC0690EC682046214609F07C
:1039B00061FB83462046594609F064FC0790304677
:1039C000494609F05FFC82463046214609F05AFC20
:1039D00081462D683046294609F054FC089040463F
:1039E000214609F04FFC04464046294609F04AFCAE
:1039F00009905846294609F045FC80462A4D4FF06B
:103A00007E50069909F034FB079909F031FB2860D4
:103A10005046414609F02CFB68604846099909F078
:103A200029FBA8605046414609F024FBE86038466F
:103A3000314609F027FC01464FF07E5009F018FB93
:103A40000646079909F014FB28612046089909F0F9
:103A50000FFB68614846099909F00AFBA8612046F6
:103A6000089909F007FBE8613046069909F000FB68
:103A700028620B4B181D0D49FFF748FF0BB0BDE83E
:103A8000F08F00BFD096FF1F989CFF1F3897FF1F35
:103A9000AC87FF1F7087FF1FFC94FF1F0092FF1F62
:103AA0007494FF1FC895FF1F1088FF1FE094FF1F2D
:103AB00010B582B0194B1B680193019C062004F0DD
:103AC000C5F9012822D1204609F088FB0446144B91
:103AD000196809F0CDFA134909F090FDD8B1104BDF
:103AE0001C60114B93F90030012B02D00F4B1B6867
:103AF0008BB10E4A136801330D4981FB0301A1EB21
:103B0000E37101EB41015B1A136004E0204609F008
:103B100065FB034B186002B010BD00BFA09DFF1FE6
:103B20009C96FF1F00007A447087FF1FA096FF1F1E
:103B30005655555500B583B0064B1B680193019847
:103B400009F048FB044B18600022044B1A6003B0D4
:103B50005DF804FBA09DFF1F9C96FF1FA096FF1F12
:103B600008B5034B1B68022B01D1FFF78FFE08BD80
:103B7000A096FF1F08B5034B1B68022B01D1FFF76E
:103B8000A9FE08BDA096FF1F08B50C4B1B68022BB1
:103B900002D1FFF7B3FE08BD33B9FEF7D7FFFFF739
:103BA000C3FAFFF721FE08BD012B05D1FEF7E0FFA8
:103BB000FFF7BAFAFFF718FE08BD00BFA096FF1F77
:103BC00010B53F4B186803689B694FF461419847F3
:103BD0003C4B186803689B694FF4E13198473A4BB6
:103BE000186803689B694FF4964198470D2001219E
:103BF00004F03AF9354801F01BF9052004F09EFA6B
:103C00003348012102F0DAFD052004F097FAFEF7AF
:103C1000C5FF304C606803689B69A1689847002322
:103C2000C4F8E034C4F8E434C4F8EC34C4F8E8343C
:103C3000D4F87C3433B104F27C42012352F8041FDF
:103C400061B900E00023234901EB8301224A02F11C
:103C50004000C1F87C046433536402E00133192B43
:103C6000ECD11C4BD3F818342BB11C4A012352F869
:103C7000041F69B900E00023164903F58370184A50
:103C800002F1440441F820407D33D364116502E021
:103C90000133192BEBD1124B124A5A61124A9A6125
:103CA0000520012104F0E0F80520002104F02CF9A2
:103CB0000620002104F0D8F8FEF77CFE10BD00BFFE
:103CC000AC87FF1FFC87FF1F0C88FF1F009DFF1F95
:103CD0000092FF1F5C97FF1F2495FF1F749BFF1F1F
:103CE000D895FF1F64E900006CE900002DE9F84356
:103CF000044603689B689847282846DD2368DB68EC
:103D000020469847F02840D12368DB682046984732
:103D100025283AD12368DB6820469847012834D10A
:103D2000DFF8789009F1FF3509F123081627236899
:103D3000DB682046984705F8010F57FA80F6F7B27E
:103D40004545F4D12368DB6820469847B8421CD12A
:103D50002368DB6820469847A52816D123685B694D
:103D6000204698474A460023094E4D46094C0A48CA
:103D700059599951D1681951916919500433043234
:103D80000C2BF5D10120BDE8F8830020BDE8F883B5
:103D9000A087FF1F9487FF1F8887FF1F4C96FF1F78
:103DA000F8B5044603689B6898470F2820DD236810
:103DB000DB682046984701281CD10F4F3D1F18375C
:103DC0002368DB682046984706462368DB68204660
:103DD000984700EB062045F8040FBD42F0D1236858
:103DE000DB6820469847032814BF00200120F8BD57
:103DF0000020F8BD0020F8BDB096FF1F38B5FFF7D2
:103E0000CFFF002800F0C080604D614C284621693A
:103E100005F080FA284605F031FA226941F6AB0335
:103E20009A420CBF012200225A4B1A70584B586913
:103E3000A0F1C80240F28E239A4294BF01220022D0
:103E4000554B1A70524B9A6841F2AA039A420CBF22
:103E500001220022514B1A7009F0C0F9504909F0B3
:103E600007F9504909F00EFA4F4909F0BFFA044624
:103E7000002109F0A5FB58B920464A4909F0BEFBCC
:103E800040B92046002109F09BFB20B1002402E04C
:103E9000002400E0434C454B1C603D4B986909F001
:103EA0009DF90146424809F0E3F8424909F09EFABB
:103EB000414909F0DFF84FF07C5109F0E3F905467C
:103EC0003E4909F09BFB20B928463D4909F078FBA3
:103ED00048B13C4C28463C4909F0D4F90146A06859
:103EE00009F0C6F8A0602A4B186809F077F937493D
:103EF00009F0BEF8364909F0C5F9364909F076FAF5
:103F0000354909F0B7F80446344909F059FB58B966
:103F10002046314909F072FB40B920462F4909F08B
:103F20004FFB20B12D4C02E02C4C00E02A4C254BDD
:103F30001C60174BD86809F051F9294909F098F825
:103F4000234909F09FF9274909F050FA224909F05D
:103F500091F80446214909F033FB60B920461E4917
:103F600009F04CFB48B920461C4909F029FB30B93F
:103F700004F1004404E0184C02E0184C00E0164C38
:103F8000104B5C60012038BD002038BDCC9EFF1F67
:103F9000B096FF1F3697FF1F7094FF1FCE96FF1F2E
:103FA00000002F430000C84300402844D495FF1F61
:103FB00000504A4500002C4448E1FA3E0AD7233D10
:103FC0000AD723BDC893FF1F9A99993E0060954474
:103FD000DB0FC93F00402AC4DB0F493FDB0F49BF5D
:103FE00000D00A45008028C42DE9F04186B005467E
:103FF0002E4B00930022ADF804202D4B0293039327
:104000000493059200F5836400F27C464FF4007738
:1040100054F8043BDBB19A68ADF8042054F8042C42
:1040200012680292586803689B689847039054F896
:10403000043C58680368DB689847049005972A6831
:1040400054F8041C1368284609696A469847B44224
:10405000DED105F27C4405F59C674FF4007854F8F6
:10406000040BD8B14268ADF804208268029202685D
:1040700092689047039054F8040C0368DB689847F3
:104080000490CDF814802B681E6854F8040C036863
:104090005B689847014628466A46B047BC42DED175
:1040A000012385F8F43406B0BDE8F081A8E50000EE
:1040B00060E900002DE9F04107460E4690461D4696
:1040C0001B681B682846F02198472B681B68284608
:1040D000414698472B681B68284631469847103E52
:1040E0004644F6B208F1FF33002B0DDD3C46013F9C
:1040F00047442B681B6828462178984714F8013BF1
:104100001E44F6B2BC42F4D12B681B6828463146E7
:1041100098472B681B682846A5219847BDE8F08181
:10412000F8B507462F4C304A136823605368636024
:104130009368A360D368E3602C4D28684FF07E51EC
:1041400008F098FF296908F095FF296A08F092FFA6
:1041500008F024FC06F0E4FE0022254B08F072FC77
:1041600008F032FF20614FF0814109F08BF80646DC
:10417000E869696908F07CFF314609F037F9606148
:10418000A868A96908F074FF314609F02FF9A06109
:10419000E868696808F06CFF314609F027F9E061CA
:1041A000144A13682362536863629368A362124AD5
:1041B0001368E36253682363104B1B7843B1104BC1
:1041C0001B782BB10F4B1B7813B19268626302E02E
:1041D0000022044B5A63034802213D223B46FFF76D
:1041E00069FFF8BDEC96FF1FD096FF1FD887FF1F11
:1041F0000000E03F8494FF1FF094FF1F3697FF1FDD
:104200007094FF1FCE96FF1F2DE9F04F93B003F07F
:1042100073FF08F0DFFF0446974B186808F0DAFFD9
:104220000146204608F024FF0646002109F0C8F99F
:10423000002840F0F0833046904909F0D5F9002875
:1042400000F0E983204609F009FA8B4B18608C4C8A
:10425000206808F0BFFF314608F00CFF09F0FEF9B6
:104260002060884B1A7801321A70FEF751FB864B9A
:104270001868FFF7C3FDFEF723FB844B1B781BB1C7
:104280003046FFF76DFC07E0FEF7E8F9FFF7E2FACA
:10429000FFF74AF9FEF710FD7D4B1B680293029D64
:1042A0007C4BD3F8FC24AA1A42F6F8239A4203D98D
:1042B0000022784B83F8F424764BD3F8E03443B1F2
:1042C000744BD3F800359D4203D90022714BC3F8DB
:1042D000E024704C704FA046DFF8C491DFF8C4A111
:1042E00060680368DB6898470028C0F2FC81D4F856
:1042F000F0240244C4F8F024D4F8E034072B11D1A0
:10430000D4F8EC345A1CC4F8EC2423441876D4F8BE
:10431000E434013BC4F8E434002BE1D10823C4F8B1
:10432000E034DDE7ABB9FF2807D10123C4F8E0345E
:1043300005F11403C4F80035D2E7554B1B6803930D
:10434000039B5B1B052BCBD90022524B83F8F42433
:10435000E8E1012B1DD1FE2803D10223C4F8E0348B
:10436000BEE70023C4F8E03494F8F434002BB7D14E
:104370004A4B0B9300230C930D9323681B68404614
:104380000A210BAA9847424B1B680493049BE360E5
:10439000A6E7022B0AD1C4F8E4040023C4F8EC34E5
:1043A0000323C4F8E034C4F8F00499E7032B09D1DF
:1043B000D4F8E43403EB0023C4F8E4340423C4F851
:1043C000E0348DE7042B0CD13A4003D5013A62F07A
:1043D000FF020132FF2A0CBF05230023C4F8E0349A
:1043E0007EE7052B07D1C4F8E8040623C4F8E034BF
:1043F000C4F8F00474E7062B11D1D4F8E83403EBC9
:104400000023C4F8E8340723C4F8E034D4F8E434D3
:10441000002B7FF465AF0823C4F8E03460E7082B75
:104420007FF45EAF0023C4F8E0343A4003D5013A8C
:1044300062F0FF020132FF2A7FF452AFD4F8E83471
:10444000002B31D1154B0B9300230C930D93114C82
:1044500023681B6820460A210BAA98470C4B1B684F
:104460000593059BE3602046FFF7BEFDC4F8F854B2
:10447000C4F8FC5456E100BF949CFF1F00401C454B
:104480009494FF1FCD96FF1FFC87FF1FCE96FF1F42
:10449000A09DFF1F5C97FF1FFF00008090E50000BC
:1044A000D34D621000CA9A3B0A2B48D1DFF8F4B210
:1044B000DBF8003007930798E368C01A627EA37E9A
:1044C0001B0443EA0222237E134394F81BE043EAD1
:1044D0000E6E627FA37F1B0443EA0222237F1343F5
:1044E000E27F43EA02620092DBF800300893089A08
:1044F000A9FB00318909A9FB02C39B09C3EB010C8D
:104500000CF1FF3CE644C4F810E04FF47A7E0EFB59
:1045100011010EFB1323CA1A9F4B02FB03A3009940
:104520000B44636104F1100004F1140103F09AF8E4
:10453000DBF800300693069BC4F8FC34D0E6062B6B
:1045400040F0BE8094F818B094F80C355B4507D263
:10455000D4F814054FEA8B0109F0EEFBC4F81405FA
:1045600084F80CB5BBF1000F21D0434600224FF078
:10457000040B587F997F090441EA0020197F014309
:10458000D87F41EA0061C4F810150BF1040BC4EBAD
:10459000030ED4F81415D4F8100541F80E000132BA
:1045A000D2B2043394F80C159142E2D801E04FF0F6
:1045B000040BCDF804B004EB0B031B7E009394F8BE
:1045C0001835009A934206D2D4F82005910009F0DC
:1045D000B3FBC4F820050BF1040B009B84F81835DD
:1045E0004BB3DDF804C00CF11803234400226FF034
:1045F000170CC4EB0C0C0199C1EB0C0C5879997990
:10460000090441EA002019790143D87941EA00619F
:10461000C4F81C150BF1040B0CEB030ED4F8201599
:10462000D4F81C0541F80E000132D2B2043394F8DC
:1046300018159142E2D804EB0B031B7E009394F80B
:104640002435009A934206D2D4F82C05910009F043
:1046500073FBC4F82C050BF1040B009B84F8243584
:1046600053B34FF0000EF4460BF11803E0580B90D3
:104670000BF1040B0B985844834506D25B46E218B5
:10468000117ED17501338342F9D3231883F817C003
:104690000BF117032344C4F828358346D4F82C358E
:1046A000D4F8280543F82E000EF1010E5FFA8EFEB5
:1046B00094F824357345D7D8012384F804350FE6E0
:1046C0000B2B03D1002384F8F43409E604EB8303B5
:1046D000D3F8EC0200283FF403AE03681B6804F132
:1046E00018019847FCE52D4B93F8F434D3B12B4BCC
:1046F000D3F8F824AA1A40F6C4139A4212D9284BC8
:104700000B9300230C930D93244C23681B682046C5
:104710000A210BAA9847234B1B680993099BE36066
:10472000C4F8F854204B1B780BB1FFF723FA30463E
:10473000FFF70CF930461D4908F042FF00283BD036
:104740001B4B1B7843B9FEF701FAFEF7EDFCFFF7B0
:104750004BF8FFF7EFF931E0164B1B7843B9FEF742
:1047600007FAFEF7E1FCFFF73FF8FFF7E3F925E072
:104770000D4B1B78002B40F048813046FEF7DEFBE6
:10478000FEF7F6FCFEF70CFDFFF72EF816E03046BC
:10479000FFF7FAF912E000BF40420F005C97FF1FDD
:1047A00090E50000A09DFF1FCE96FF1F0060EA4528
:1047B0003697FF1F7094FF1F984B1E603046984934
:1047C00008F014FE01469748FEF70AF9964B1B784D
:1047D00013F0010F7AD1954B1B78002B76D0944BB8
:1047E0001B78002B39D0934C934B6361934B5A68E1
:1047F00062629A68A262DB68E362914B1A68226483
:104800005A6862639A68A263DB68E3638D4B1B6836
:104810000A930A998C4AA2FB01C292098B4B186930
:1048200010440E904FF47A7000FB12125869884BB6
:1048300003FB02030F930EAD28460FA902F012FFEF
:1048400004F10C0395E8030083E80300206D03687E
:104850001B68E16C2246984738E0764C7D4B6361DB
:10486000764B5A6862629A68A262DB68E362744BB4
:104870001A6822645A6862639A68A263DB68E36319
:10488000704B1B680B930B996F4AA2FB0132920984
:104890006E4B1869104410904FF47A7000FB12129E
:1048A00058696B4B03FB0203119310AD284611A905
:1048B00002F0D8FE04F10C0395E8030083E803003E
:1048C000206D03681B68E16C22469847624B1868AC
:1048D000FFF70CFAE0B1604B1B6860490022084604
:1048E0005F4F604D604C52F807E042F800E052F82C
:1048F00005E0C1F80CE052F804E0C1F818E0043219
:1049000004310C2AEFD1554801212522FFF7D2FBB3
:10491000454B1B78554AA2FB03C2120902EB8202E7
:10492000A3EB820313F0FF0F21D14B4B18683146E4
:10493000FFF7F6FBFFF7BCF84D4B1B785AB2012A84
:1049400005D1052041F6FF7103F0DEFA0FE05AB2FF
:10495000032A05DC05204FF4FA7103F0D5FA06E0CE
:104960005BB2042B03D10520002103F0CDFA2E4BBE
:104970001B78C82B4FD13F4A13785B42DBB21370D0
:10498000012B2DD10D20002103F03CFA274B1B7881
:1049900053BB394B186A394B196808F069FB044658
:1049A000374908F02BFE40B12046364908F008FE92
:1049B00018B1354B1A7801321A70334B1B78032B20
:1049C00005D90122194B1A70304801F0FDFE0D2067
:1049D000012103F017FA284B1A6A284B1A6003E0EA
:1049E0000D20012103F00EFA294C206808F0F2FB9B
:1049F0000146284808F0FAFC08F030FE264B986380
:104A000000232360084A137005E0244B1B78002B19
:104A10003FF4D4AEBBE613B0BDE8F08FA49CFF1FFB
:104A2000002474497894FF1FCD96FF1F5897FF1FED
:104A30003697FF1FD895FF1F64E900007494FF1F8D
:104A4000D096FF1FA09DFF1FD34D62105C97FF1FE4
:104A500040420F0074E90000AC87FF1F4C96FF1F17
:104A6000A087FF1F9487FF1F8887FF1FCDCCCCCC6A
:104A70007087FF1FD487FF1F1088FF1F8C9CFF1FAC
:104A80006F1283BA6F12833ACC96FF1F0092FF1FFA
:104A90009494FF1F20BC3E4DEC96FF1FCE96FF1F47
:104AA00010B502F08DFE504C204601F0FFF8204674
:104AB0004E494F4A08F0F2FD4E494F4B0B604F4BA9
:104AC0004B604FF4E1338B60002381F8F4344C4A9F
:104AD000C1F8082581F80C35C1F8143581F818356E
:104AE000C1F8203581F82435C1F82C3501F2144382
:104AF00001F58F60002243F8042F8342FBD1414B24
:104B000001F2DC40002243F8042F8342FBD13E4BEC
:104B100001F21720002203F8012F8342FBD13B4B07
:104B200001F21741002203F8012F8B42FBD1384BD1
:104B30003848186000225A609A60DA601A615A6137
:104B40009A61DA611A625A629A62DA621A635A6385
:104B50009A63002183F83C102F4C1C64D8641A65BA
:104B60005A659A65DA651A665A669A66DA661A6747
:104B70005A679A67DA67C3F88020C3F8842083F8FD
:104B800088102648C3F88C000120C3F89000244800
:104B90009864244B24481860244858609960D96070
:104BA00019612348586198612248D86122481862E7
:104BB0005A629A62DA62214818635A639A63DA6326
:104BC0001A641F4A5A649B64596503F095FA1D4B99
:104BD00018601D4C20461D4904F0F2FB20461C497C
:104BE000034A08F05BFD10BD0092FF1F1912000080
:104BF0006087FF1F5C97FF1F68E60000989EFF1FFD
:104C0000D8E50000D49BFF1F7397FF1F7399FF1F08
:104C10002495FF1F80E6000098E60000C92A0000E6
:104C200080E90000D895FF1F50E60000F0E5000085
:104C300060E9000038E6000008E6000020E6000019
:104C40008CE90000949CFF1F7096FF1F98E90000FC
:104C500029930000044BD878C0B2044B1B689842DB
:104C60001CBF024B18607047006006403C88FF1F65
:104C700008B5FFF7EFFF10F0020FFAD00222014B48
:104C8000DA7008BD006006400B4B1B7813B90B4B64
:104C90001B7873B10A4B1B78202B03D901230371B6
:104CA00000207047581C064A1070064AD154012053
:104CB00070470020704700BF129DFF1FD49CFF1F4C
:104CC000139DFF1FB09CFF1F704700BF024B187859
:104CD000024B1B78C01A7047119DFF1F109DFF1FCC
:104CE000074B1B78074A12789A4205D9591C044A87
:104CF0001170054AD05C70474FF0FF30704700BF1D
:104D0000109DFF1F119DFF1FD89CFF1F054B1B7897
:104D1000054A12789A4286BF044AD05C4FF0FF30B1
:104D2000704700BF109DFF1F119DFF1FD89CFF1FE4
:104D300008B5104BDB7813F0200F0CD1122002F0D5
:104D40008DFF0D4B1B689BB100210C4A11700C4A62
:104D50001078984708BD0B4A13780133DBB2137003
:104D6000012B02D8084B1B7813B9122002F076FFF2
:104D700008BD00BF00600640AC9CFF1F109DFF1FD8
:104D8000119DFF1FFC9CFF1FD49CFF1F38B51446CC
:104D90000D4B1B7813B90D4B1B7893B10C4B1D7841
:104DA000C5F12103A34202D2012202711C46094827
:104DB0002844224602F06AFC2544054B1D7020461B
:104DC00038BD002038BD00BF129DFF1FD49CFF1FBF
:104DD000139DFF1FB09CFF1F002202714FF47A71D8
:104DE00081600273014A0260704700BFC0E90000A1
:104DF0000B4B1B6813F0400F10D00A4B994203D89D
:104E00002722094B5A7006E0084B994294BF1A2298
:104E10000D22054B5A700422034B9A71704700BF54
:104E2000348004407F1A0600006006403F420F00B5
:104E300008B50023174A1370174A116841F0400162
:104E40001160164A9370164B1B78122B04D14FF445
:104E50001972144B1A6005E0112B03D14FF419722B
:104E6000114B1A60114B1B78132B04D14FF419729C
:104E70000F4B1A6005E0102B03D14FF419720D4B44
:104E80001A600D49FFF7B4FF044B20225A718022AB
:104E90009A7008BDD49CFF1F348004400060064017
:104EA0003888FF1F0CA0044004A004404088FF1F66
:104EB00008A0044000A00440A086010008B53D4BB6
:104EC000DB78DBB213F0100F06D01021394AD17015
:104ED00013F0400F03D108BD13F0400F2CD013F096
:104EE000040F1BD00023344A1370344A1370344B20
:104EF0001B681BB19847314B1B782BB901222F4BF4
:104F00001A7000222F4B1A702A4BD0229A702D4A09
:104F100012781A7101222C4B1A7009E00122264BDB
:104F20001A700022294B1A70224BC0229A701B79EA
:104F30000222204BDA7008BD1E4A927812F0100F40
:104F40001CD013F0010F14D11F4B1B781B4A127891
:104F50009A4207D9591C1C4A11701A4AD25C154B47
:104F60001A7102E00022134B1A71D022114B9A7071
:104F70001BE0104BC0229A701B7916E00022144BE4
:104F80001A7012201349032202F020FE094B1B79EC
:104F9000DAB20E4B1B781F2B07D80749097821B1CD
:104FA000581C0A4908700C49CA540222014BDA7095
:104FB00008BD00BF00600640A89CFF1F139DFF1F97
:104FC000F89CFF1FB09CFF1F149DFF1F119DFF1F2A
:104FD000FC9CFF1F314D0000D89CFF1F4900044B73
:104FE00019700123034A1370034A1370704700BFFE
:104FF000B09CFF1F129DFF1F139DFF1F2DE9F04165
:1050000082B08846374B1222DA709B7813F0200F5B
:1050100003D0B422334B9A701DE0334B1B680093CE
:10502000009D314C0CE023680193019B5B1B0F2B0F
:1050300006D92C4B00229A7080229A7004204EE0F0
:10504000FFF708FE10F0200FEDD10022274B1A7059
:10505000B022244B9A70FFF7FDFD10F0200FFAD01C
:10506000234B1B787BB30024224E1E4D204F335D13
:105070002B71FFF7EFFD10F0020F02D110F0200F9F
:10508000F7D10223EB70FFF7E5FD10F0100F04D00D
:105090008022144B9A70042018E010F0200F04D1E5
:1050A0008022104B9A70042010E010F0010F04D001
:1050B000002C0CBF022003200BE00134E4B23B784B
:1050C000A342D4D801E0002000E00020B8F1000F96
:1050D00002D08022034B9A700022074B1A7002B054
:1050E000BDE8F08100600640A09DFF1FD49CFF1F1B
:1050F000139DFF1FB09CFF1F129DFF1F2DE9F8435A
:105100000D461446984600233E4A13703E4A1370DB
:105110003E4B1222DA709B7813F0200F03D0B4229A
:105120003A4B9A700AE0FFF795FD10F0200FFAD184
:105130000022374B1A70B022344B9A706D0045F044
:105140000105EDB2314B1D71FFF792FDFFF782FDB6
:1051500010F0110005D080222C4B9A700020BDE881
:10516000F88344B9B8F1000F0CBFA0228022274B6E
:105170009A70BDE8F883012C04D1244BA8229A70C0
:105180001B7938E0214BA0229A701B79012C32D96F
:1051900000251E4E4FF0A8091E4FFFF769FD013C88
:1051A000E4B2012C08BF86F802901F2D04D86A1CB7
:1051B00033797B55D5B200E03379012CEDD1FFF77F
:1051C00057FDB022114B9A701F2D07D82B465D1C3E
:1051D000EDB20E4A11790F4AD15401E00B4B1B7905
:1051E000B8F1000F02D08022084B9A70064B1D7058
:1051F0002846BDE8F883FFF73BFDB022034B9A70C9
:105200000023E4E7109DFF1F119DFF1F0060064073
:10521000D49CFF1FD89CFF1F08B50123FFF76EFF2A
:1052200008BD00BF08B5C9B2D2B20123FFF766FFBF
:1052300008BD00BF08B5C9B2FFF7D0FE08BD00BF6A
:1052400008B50121FFF7DAFE08BD00BF08B5024826
:10525000FFF7C2FD08BD00BF009DFF1F184B1A6875
:1052600042F480521A60174B174A1A60174ADA60E4
:1052700002F180421A61164A1A60164B1B7813F02D
:10528000010F07BF4FF41072134B4FF40072134B12
:105290001A60104B1B7813F0020F4FF400720CBF12
:1052A0000F4B104B1A600B4B1B7813F0040F07BF0A
:1052B0004FF410720C4B4FF400720C4B1A60704795
:1052C0003C80044000C0024001401F000110003833
:1052D00000001F80C89EFF1F18B0044008C0044093
:1052E0001CB004400CC0044014B0044004C004408E
:1052F0004FF07E52026042608260704770B50E4689
:105300001546084C20461E21FFF794FF20463146E3
:10531000FFF7BAFC20462946FFF7B6FC2046FFF708
:105320008FFF70BD009DFF1F08B50A46022905D8F2
:105330000221FFF7E3FF642002F000FF08BD00BF79
:1053400038B504460D46052002F0F8FE1DB1204692
:105350000021FFF7E9FF204600217022FFF7CEFF72
:1053600020460121A022FFF7C9FF2046022100228A
:10537000FFF7C4FF38BD00BF08B5062905D88A006D
:10538000002102F0FC02FFF7B9FF08BD08B50729AC
:1053900005D84A01012102F0E002FFF7AFFF08BD86
:1053A0002DE9F041884616461F46214C20461E2115
:1053B000FFF740FF2068056820460321A8472046E4
:1053C000FFF73EFF20461E21FFF734FF20461E2137
:1053D0000622FFF727FF2046FFF778FC062821D199
:1053E0002046FFF77DFC05462046FFF779FC40EAA2
:1053F000052005B2C8F800502046FFF771FC0546AD
:105400002046FFF76DFC40EA052005B23D602046CE
:10541000FFF766FC05462046FFF762FC40EA0520E0
:1054200005B235600248FFF70BFFBDE8F08100BF11
:10543000009DFF1FF0B585B004460F4616461D4679
:1054400001A902AA03ABFFF7ABFF019807F0C6FE64
:10545000216807F0CBFF3860029807F0BFFE616853
:1054600007F0C4FF3060039807F0B8FEA16807F0AA
:10547000BDFF286005B0F0BD2DE9F04784B00446BB
:105480000D464FF07E53036043608360002111227C
:10549000FFF734FF20462946FFF778FF0A2500274B
:1054A000B946B8464FF0010A20465146FFF73CFF87
:1054B000204601A902AA03ABFFF7BCFF019E3046BC
:1054C000414608F09BF800B1B046029E304649467E
:1054D00008F094F800B1B146039E3046394608F012
:1054E0008DF800B13746013DDED13D464E46C246FD
:1054F0004046002108F082F808B94FF00008404605
:10550000314608F05DF800B9C1464846294608F022
:1055100057F800B94F46C4F80CA0266165613846BB
:10552000514607F063FF20603846314607F05EFFC2
:1055300060603846294607F059FFA06020460021E8
:105540001022FFF7DBFE04B0BDE8F08770B584B031
:105550000E4615461C4601A902AA03ABFFF76AFFD7
:1055600001984FF07C5107F085FD08F051F830604C
:1055700002984FF07C5107F07DFD08F049F8286053
:1055800003984FF07C5107F075FD08F041F820605A
:1055900004B070BD08B50A1D01F10803FFF74AFF0A
:1055A00008BD00BF704700BF10B5074C017A204608
:1055B000FFF714FD23681B6820461E2198472046EC
:1055C000FFF73EFE10BD00BF009DFF1F2DE9F04715
:1055D0000646054600F10C09A227194C4FF00208B7
:1055E0002046317AFFF7FAFC23681B6820463946CB
:1055F00098472046FFF724FE2046317AFFF7EEFC5D
:105600002046317A4246FFF707FE2046FFF75EFB51
:1056100078B12046FFF764FB82462046FFF760FB27
:1056200040EA0A2068810237FFB202354D45D7D1E2
:1056300003E04FF0FF30BDE8F0870020BDE8F087C1
:10564000009DFF1F10B504460172FFF7ADFF4FF438
:105650007A7002F073FD2046FFF7B8FF10BD00BF5F
:105660002DE9F041884614461E46069FB8B91E4DE6
:105670002846FFF7B3FC28462146FFF705FB56B145
:105680007C1E013E57FA86F7284614F8011FFFF7E3
:10569000FBFABC42F8D11448FFF7D2FD21E00846DE
:1056A000002102F0AFFB114B4FF00042DA625C6365
:1056B000DA6A002AFCDA0D4B9B6B76B100250B4CA5
:1056C0004FF000417B5DE1626363E26A002AFCDA2D
:1056D000A36B0135EAB29642F4D84046012102F0AC
:1056E00091FB0120BDE8F081009DFF1F00C002403A
:1056F00010B584B004AC04F8013D00940123FFF719
:10570000AFFF04B010BD00BF2DE9F04F85B0894652
:10571000154698460E9FBDF83CA0002847D13E4C48
:105720002046FFF75BFC20462946FFF7ADFA2046EE
:10573000FFF786FD20464946FFF750FC20464946C4
:105740004246FFF769FD354B1B680193DDF8049075
:105750000024314EDFF8C4B005E06DB23046FFF7EB
:10576000BFFA78550134E5B23046FFF7AFFA0028AA
:105770004BD0BAF1000FF0D0DBF800300293029B5F
:10578000C9EB03035345E8D32A4600E02A46234BDE
:105790001B680393039BC9EB0309D14503D352B2A2
:1057A0004245B8BFFF251C48FFF74AFD2BE00846DD
:1057B000002102F027FB1A4B4FF00042DA6245F05D
:1057C00080055D631A46D36A002BFCDA144B9B6B91
:1057D000B8F1000F12D00026114D4FF000413246B3
:1057E000E9626A63EC6A002CFCDAAB6BBB550136EC
:1057F000F3B24345F4D35FFA88F500E0002548464C
:10580000012102F0FFFA68B203E0BAF1000FBDD146
:10581000C9E705B0BDE8F08F009DFF1FA09DFF1FE9
:1058200000C0024000B583B00093BDF81030019372
:105830000123FFF769FF03B05DF804FBF0B585B005
:1058400006460D4614461F460F4B1B8800930DF16C
:105850000F03FFF7E7FF9DF8283033B10123BB406A
:105860009DF80F201343DBB205E00123BB409DF8F8
:105870000F2022EA03038DF80F30304629462246D6
:10588000FFF736FF05B0F0BD4288FF1F2DE9F0415C
:1058900084B080460F4616461C469DF82850154B8E
:1058A0001B8800930DF10F03FFF7BCFFE8B1C5F1B2
:1058B00008039DF82C109940C9B2C4F107021141A8
:1058C0002B1B0733FF2242FA03F30134A240134398
:1058D0009DF80F0003400B43DBB28DF80F304046BC
:1058E00039463246FFF704FF00E0002004B0BDE86F
:1058F000F08100BF4288FF1F68234370704700BFDC
:1059000001704270704700BF00B583B00346007855
:105910005B7803220092019119461A220223FFF7B5
:10592000B5FF03B05DF804FB00B583B00346007813
:105930005B7802220092019119461B220423FFF793
:10594000A5FF03B05DF804FB00B583B00346007803
:105950005B7802220092019119461C220423FFF772
:1059600095FF03B05DF804FB00B583B003460078F3
:105970005B780091194637220123FFF75FFF03B0E0
:105980005DF804FBF0B583B004460F4616461D468D
:1059900000786178A31C0093144B1B8801933B2271
:1059A0000E23FFF7B1FEA278E37843EA02233B809F
:1059B0002279637943EA02233380A279E37943EAC7
:1059C00002232B80A27AE37A43EA0222089B1A8000
:1059D000227B637B43EA0222099B1A80A27BE37B42
:1059E00043EA02220A9B1A8003B0F0BD4288FF1FDF
:1059F00010B582B0044600786178A31C0093074B71
:105A00001B88019341220223FFF77EFEA078E378F2
:105A100043EA002000B202B010BD00BF4288FF1F61
:105A200000B583B0034600785B78009119466A227E
:105A30000523FFF703FF03B05DF804FB00B583B057
:105A4000034600785B78009119466A220423FFF729
:105A5000F5FE03B05DF804FB00B583B003460078A3
:105A60005978012300936B220723FFF7E7FE3220CA
:105A700002F064FB03B05DF804FB00BF00B583B027
:105A8000034600785B78009119466B220623FFF7E6
:105A9000D5FE03B05DF804FB00B583B00346007883
:105AA0005B7803220092019119466B220223FFF7D3
:105AB000EDFE03B05DF804FB10B504460378B3B106
:105AC000FFF7CCFB6078012102F0CEF9607801216C
:105AD00002F098F92046FFF7BFFF642002F02EFB8A
